:100000000C9462000C948A000C948A000C948A0070
:100010000C948A000C948A000C948A000C94660359
:100020000C948A000C948A000C948A000C948A0028
:100030000C948A000C948A000C948A000C948A0018
:100040000C941C030C948A000C94EA020C94C402D5
:100050000C948A000C948A000C948A000C948A00F8
:100060000C948A000C948A000000000023002600F3
:10007000290000000008000201000003040700003E
:1000800000000000000000000000250028002B00F8
:1000900000000000240027002A00040404040404D3
:1000A0000404020202020202030303030303010227
:1000B00004081020408001020408102001020408F6
:1000C0001020430411241FBECFEFD8E0DEBFCDBF08
:1000D00011E0A0E0B1E0E0E0FFE102C005900D9288
:1000E000AA34B107D9F722E0AAE4B1E001C01D9219
:1000F000A63DB207E1F710E0C2E6D0E004C02197C8
:10010000FE010E94690FC136D107C9F70E9475042C
:100110000C947E0F0C940000AF92BF92CF92DF92AE
:10012000EF92FF920F931F93CF93DF936C017B01AC
:100130008B01040F151FEB015E01AE18BF08C0173D
:10014000D10759F06991D601ED91FC910190F081B0
:10015000E02DC6010995892B79F7C501DF91CF9173
:100160001F910F91FF90EF90DF90CF90BF90AF90D5
:100170000895FC01538D448D252F30E0842F90E0AD
:10018000821B930B541710F0CF9608950197089592
:10019000FC01918D828D981761F0A28DAE0FBF2F5B
:1001A000B11D5D968C91928D9F5F9F73928F90E0B1
:1001B00008958FEF9FEF0895FC01918D828D981720
:1001C00031F0828DE80FF11D858D90E008958FEF5D
:1001D0009FEF0895FC01918D228D892F90E0805C26
:1001E0009F4F821B91098F739927089587E691E0AD
:1001F0000E94EA0021E0892B09F420E0822F089573
:1002000080E090E0892B29F00E94F60081110C9487
:1002100000000895FC01A48DA80FB92FB11DA35AA9
:10022000BF4F2C91848D90E001968F739927848F16
:10023000A689B7892C93A089B1898C918370806439
:100240008C93938D848D981306C00288F389E02DDA
:1002500080818F7D80830895EF92FF920F931F938B
:10026000CF93DF93EC0181E0888F9B8D8C8D981369
:100270001AC0E889F989808185FF15C09FB7F89475
:10028000EE89FF896083E889F989808183708064C1
:1002900080839FBF81E090E0DF91CF911F910F910C
:1002A000FF90EF900895F62E0B8D10E00F5F1F4F1B
:1002B0000F731127E02E8C8D8E110CC00FB607FC2A
:1002C000FACFE889F989808185FFF5CFCE010E94B8
:1002D0000A01F1CFEB8DEC0FFD2FF11DE35AFF4F1B
:1002E000F0829FB7F8940B8FEA89FB898081806246
:1002F000CFCFCF93DF93EC01888D8823B9F0AA8903
:10030000BB89E889F9898C9185FD03C0808186FDD0
:100310000DC00FB607FCF7CF8C9185FFF2CF80811F
:1003200085FFEDCFCE010E940A01E9CFDF91CF9189
:100330000895833081F028F4813099F08230A9F05B
:1003400008958730A9F08830C9F08430B1F48091E5
:1003500080008F7D03C0809180008F778093800024
:10036000089584B58F7784BD089584B58F7DFBCFC4
:100370008091B0008F778093B00008958091B00095
:100380008F7DF9CF1F93CF93DF93282F30E0F901B2
:10039000EE58FF4F8491F901E255FF4FD491F901D6
:1003A000E656FF4FC491CC23A9F0162F81110E946D
:1003B0009901EC2FF0E0EE0FFF1FEA57FF4FA591D8
:1003C000B4918FB7F894EC91111108C0D095DE2349
:1003D000DC938FBFDF91CF911F910895DE2BF8CF73
:1003E000CF92DF92EF92FF92CF93DF93EC01072E33
:1003F000000C880B990B0E94FB0D6B017C0120E027
:1004000030E040E45FE30E94AB0E20E030E048E4DF
:1004100052E40E94510D0E94C30DC617D707D4F0B5
:1004200020E030E040EA5FE3C701B6010E94AB0E76
:1004300020E030E048E452E40E94510D20E030E03A
:1004400040E85FE30E94E00C0E94C30D21E06C17BE
:100450007D070CF420E0822F90E0DF91CF91FF9098
:10046000EF90DF90CF9008958F929F92AF92BF92BE
:10047000CF92DF92EF92FF920F931F93CF93DF9370
:10048000FC0120813181E0916301F091640101E080
:1004900010E02E173F070CF045C0D901AA0FBB1F73
:1004A000E0916101F0916201EA0FFB1FA080B18031
:1004B0008901009510950170112720FD27C02CE9B6
:1004C0003FEFEA016B017C014901840E951EB401E6
:1004D000C5010E94F00121E030E0892BD1F48C0E9F
:1004E0009D1EB401C5010E94F00122E030E0892B7D
:1004F00081F4BE01680D791DC5010E94F00123E061
:1005000030E0892B31F40FEF1FEF0CC024E630E010
:10051000D8CFF6018081918101968217930784F4E8
:1005200091838083C801DF91CF911F910F91FF903C
:10053000EF90DF90CF90BF90AF909F908F900895F5
:1005400011821082F701808191810196E9CFCF93CA
:10055000DF93FC0101900020E9F73197AF01481BC0
:10056000590BBC0187E691E00E948C00EC0142E04F
:1005700050E062E171E087E691E00E948C008C0F10
:100580009D1FDF91CF9108951F920F920FB60F928A
:1005900011242F933F934F935F936F937F938F9388
:1005A0009F93AF93BF93EF93FF9387E691E00E94F1
:1005B0000A01FF91EF91BF91AF919F918F917F9130
:1005C0006F915F914F913F912F910F900FBE0F90C0
:1005D0001F9018951F920F920FB60F9211242F9310
:1005E0008F939F93EF93FF93E0917701F0917801C0
:1005F0008081E0917D01F0917E0182FD1BC09081A0
:10060000809180018F5F8F7320918101821741F06B
:10061000E0918001F0E0E959FE4F958F80938001D1
:10062000FF91EF919F918F912F910F900FBE0F909F
:100630001F9018958081F4CF1F920F920FB60F92E2
:1006400011242F933F938F939F93AF93BF938091E8
:100650004F0190915001A0915101B0915201309100
:100660004E0123E0230F2D3758F50196A11DB11D32
:1006700020934E0180934F0190935001A09351011C
:10068000B093520180914A0190914B01A0914C018D
:10069000B0914D010196A11DB11D80934A01909327
:1006A0004B01A0934C01B0934D01BF91AF919F912D
:1006B0008F913F912F910F900FBE0F901F90189523
:1006C00026E8230F0296A11DB11DD2CF1F920F92D3
:1006D0000FB60F9211242F933F934F935F936F9315
:1006E0007F938F939F93AF93BF93CF93DF93EF93BA
:1006F000FF932091050230E0F901EE58FF4F8491FD
:10070000F901E255FF4FD491F901E656FF4FC4912C
:10071000CC2379F081110E949901EC2FF0E0EE0FCB
:10072000FF1FE859FF4FA591B491EC91ED2381E0B3
:1007300009F480E02091090230910A022F5F3F4FB7
:1007400030930A022093090290910802953618F01E
:1007500096E09093040290910402943009F466C0EC
:10076000B8F49230F1F0933009F444C0909107024C
:10077000992309F46BC081117CC080910602882303
:1007800009F463C08091060261E00E94C2015EC06C
:10079000953009F457C0963049F791E09093D5020F
:1007A0004FC08111E3CF2091090230910A02243613
:1007B000310528F410920A0210920902D7CF109244
:1007C000D50210920802E091080291E09E0F9093EA
:1007D0000802F0E02091090230910A02EE0FFF1F9B
:1007E000EC5FFD4F3087278310920A0210920902B6
:1007F00093E019C0813009F0B9CFE091080291E08F
:100800009E0F90930802F0E02091090230910A02B5
:10081000EE0FFF1FEC5FFD4F3087278310920A0217
:100820001092090294E090930402A0CF882359F219
:100830002091090230910A022536310508F496CF3D
:1008400095E0F1CF811192CFB5CF2D9AFF91EF9125
:10085000DF91CF91BF91AF919F918F917F916F91D8
:100860005F914F913F912F910F900FBE0F901F906E
:10087000189580910602882321F08091060260E09D
:1008800084CF2D98E3CFE7E6F1E01382128288EE61
:1008900093E0A0E0B0E084839583A683B78384E0EF
:1008A00091E09183808385EC90E09587848784EC48
:1008B00090E09787868780EC90E0918B808B81EC2D
:1008C00090E0938B828B82EC90E0958B848B86EC0E
:1008D00090E0978B868B118E128E138E148EE4E02F
:1008E000F2E087E0818313820895CF93DF93CDB741
:1008F000DEB72C970FB6F894DEBF0FBECDBF78944D
:1009000084B5826084BD84B5816084BD85B5826014
:1009100085BD85B5816085BD80916E0081608093C5
:100920006E0010928100809181008260809381002E
:10093000809181008160809381008091800081603E
:10094000809380008091B10084608093B100809199
:10095000B00081608093B00080917A0084608093C1
:100960007A0080917A00826080937A0080917A0088
:10097000816080937A0080917A00806880937A0009
:100980001092C100E0917701F091780182E08083BC
:10099000E0917301F09174011082E0917501F09182
:1009A00076019FEC908310927F01E0917B01F091A2
:1009B0007C0196E09083E0917901F0917A01908139
:1009C00090619083E0917901F0917A019081986033
:1009D0009083E0917901F0917A0190819068908301
:1009E000E0917901F0917A0190819F7D9083F89454
:1009F0008093B0008093B10094E69093B30010927E
:100A0000B2008093700078948093040210920802E0
:100A10008091050290E0FC01E255FF4F249186563B
:100A20009F4FFC0184918823C9F090E0880F991FA3
:100A3000FC01E057FF4F45915491FC01EA57FF4FED
:100A4000A591B4919FB7F894FA01808120958223F3
:100A500080838C91E22FE823EC939FBF81E0809309
:100A60000702EBEBF0E02491E7EAF0E084918823C1
:100A700099F090E0880F991FFC01E057FF4FA59176
:100A8000B491FC01EA57FF4F859194918FB7F89488
:100A9000EC91E22BEC938FBF44244A94542C320106
:100AA000A0E22A2E312C8BE092E090936201809399
:100AB00061018091080290E090936401809363014A
:100AC0008091D50290E090936601809365018091BA
:100AD0000402853009F0E7C380910D0290910E0267
:100AE000885891098D35910508F051C08091080210
:100AF000843009F580910F029091100280974797FA
:100B0000D0F480911102909112020997099798F4FC
:100B10001092600110925F0140925B0150925C0163
:100B200060925D0170925E0183E090E090935801C5
:100B3000809357015AC380910802843440F1809118
:100B40000F0290911002825491098E9700F590E067
:100B500080E040E050E0BA01FC01EF5EFD4F2081F3
:100B60003181295031092930310588F4FC01ED5ECD
:100B7000FD4F20813181275131092231310510F19A
:100B800020813181265031092730310588F180914B
:100B900008028A3108F461C080910B0290910C0226
:100BA000843F914050F51092600110925F01409295
:100BB0005B0150925C0160925D0170925E018BE07E
:100BC00090E0B4CF440F551F661F771F4160049615
:100BD0008038910509F63092600120925F014093C0
:100BE0005B0150935C0160935D0170935E019CCF4B
:100BF000440F551F661F771FEACF80910D02909119
:100C00000E0285974B9748F5E4E0F2E082E090E031
:100C1000C12CD12C76019C012F5F3F4F40910802DF
:100C20004217130609F00CF4F6C04385548547506B
:100C300051094730510508F0EDC02585368523510F
:100C400031092F30310508F4D7C0258536852A5063
:100C500031092930310508F4D8C0809108028A3161
:100C600008F43FC080910B0290910C0280329340B7
:100C700008F499CF80910D0290910E02C697869745
:100C800080F580910F0290911002C697869748F5E3
:100C9000E4E0F2E083E090E0C12CD12C76019C01ED
:100CA0002F5F3F4F409108024217130609F00CF4E2
:100CB000DAC0458556854C5051094B30510508F036
:100CC000D1C027853089255231092B31310508F4EF
:100CD000BBC0278530892C5031092A30310508F4F2
:100CE000BCC080910802823238F180910D0290914F
:100CF0000E020697079700F5E4E0F2E082E090E04C
:100D000040E050E0BA01DC011196209108022A1758
:100D10001B0609F00CF4D3C0238534852E5131090C
:100D20002731310508F4B6C0238534852C503109AC
:100D30002B30310508F4BDC01C821B82E1E0F0E0DD
:100D4000FA83E983809108028D3008F4E9C049E70D
:100D500053E0BE016D5F7F4FCE0101960E943402C9
:100D6000892B09F0DDC049E753E0BE016D5F7F4F7D
:100D7000CE0101960E943402019709F0D1C049E7E3
:100D800053E0BE016D5F7F4FCE0101960E94340299
:100D90008C01892B09F0C4C0812C912C5401209125
:100DA000080289819A812817190609F00CF4A9C054
:100DB00049E753E0BE016D5F7F4FCE0101960E946F
:100DC00034027C0149E753E0BE016D5F7F4FCE01E5
:100DD00001960E943402F1E0EF16F10409F088C098
:100DE000892B09F09DC0880C991CAA1CBB1C689417
:100DF00080F80F5F1F4FD3CFCC0CDD1CEE1CFF1C07
:100E00006894C0F80296349606CFCC0CDD1CEE1C1C
:100E1000FF1CF8CFC90101979595879590936001C4
:100E200080935F010C972CF41092600110925F0187
:100E300014CFC0925B01D0925C01E0925D01F09210
:100E40005E0184E090E072CECC0CDD1CEE1CFF1C39
:100E50006894C0F80296349622CFCC0CDD1CEE1CB0
:100E6000FF1CF8CFC9010197959587959093600174
:100E700080935F010C972CF41092600110925F0137
:100E800030CFC0925B01D0925C01E0925D01F092A4
:100E90005E0195CE440F551F661F771F4160258563
:100EA00036853496235031092530310538F40296C1
:100EB0002ACF440F551F661F771FF1CFCD01019731
:100EC000959587959093600180935F0140972CF4EE
:100ED0001092600110925F012FCF40935B015093FD
:100EE0005C0160935D0170935E018CE090E01ECE2A
:100EF000EF28B1F40197A1F4880C991CAA1CBB1C23
:100F000078CF1093600100935F0180925B01909213
:100F10005C01A0925D01B0925E0181E090E006CE9E
:100F20001C821B82A1E0B0E0BA83A9838091630197
:100F300090916401181619060CF07EC0E0916101D1
:100F4000F091620182E090E09A83898382819381AB
:100F500089974E9708F070C083E090E09A83898368
:100F6000848195810B970A9708F066C04CEB51E09D
:100F7000BE016D5F7F4FCE0101960E9434028C014D
:100F8000892B09F059C04CEB51E0BE016D5F7F4FDA
:100F9000CE0101960E943402019709F04DC0812CC8
:100FA000912C5401209163013091640189819A81CF
:100FB000821793070CF0E2C04CEB51E0BE016D5F6D
:100FC0007F4FCE0101960E9434027C01033011054F
:100FD00039F14CEB51E0BE016D5F7F4FCE010196C0
:100FE0000E9434026C010330110561F44CEB51E0B6
:100FF000BE016D5F7F4FCE0101960E943402C8167C
:10100000D906D1F4E114F10409F4ABC0EA94EF2855
:1010100099F4CD2889F4880C991CAA1CBB1CABC080
:101020004CEB51E0BE016D5F7F4FCE0101960E94F7
:101030003402E816F90669F2E0916101F09162016B
:1010400082819381C697869778F5848195814B97A5
:10105000459750F5DF0116967F0126ECE20EF11C54
:1010600020E030E040E050E060E070E080E090E0C0
:101070000D911C9111970950110908301105A0F428
:1010800012960D911C911397015111090D30110504
:1010900008F487C012960D911C9113970450110902
:1010A0000530110508F40CC180910802893380F1E4
:1010B00082819381895791098335910548F584810F
:1010C0009581CA97899720F59F012A5F3F4FC12CD0
:1010D000D12C760143E050E0D9016D917C911197BC
:1010E0006A5071096930710598F412966D917C917E
:1010F0001397665171096131710508F4E5C01296C4
:101100006D917C91665071096730710508F40BC1CF
:1011100080910802823209F00BC1828193810A9783
:10112000099708F005C1A0910802B0E0A150B048AD
:10113000AA0FBB1FAE0FBF1F8D919C910A970997F5
:1011400008F0F6C01092600110925F0140925B01BE
:1011500050925C0160925D0170925E0186E090E0C9
:10116000E5CCCA94CD2809F067CF880C991CAA1C3D
:10117000BB1C689480F80F5F1F4F14CF1093600161
:1011800000935F0180925B0190925C01A0925D01EF
:10119000B0925E01E2E0F0E0F0935801E093570175
:1011A00024C001E00E94330F21601496AE15BF05E4
:1011B00009F05ECF20935B0130935C0140935D01A9
:1011C00050935E0100E20E944E0F2093590130932C
:1011D0005A0185E090E0909358018093570180E395
:1011E00090E09093600180935F0180915B0190910A
:1011F0005C01A0915D01B0915E018F3F9F4FAF4FA9
:10120000BF4F81F48091530190915401A0915501F9
:10121000B091560180935B0190935C01A0935D01B6
:10122000B0935E0180915B0190915C01A0915D01A2
:10123000B0915E018D3922E692072FEFA207B1052A
:1012400009F496C308F03BC38F3CF0E39F07FFEF20
:10125000AF07B10509F49EC308F006C38F3EE0E175
:101260009E07EFEFAE07B10509F49DC308F0EBC28E
:101270008D3F9240AF4FB10509F47DC380915B0172
:1012800090915C01A0915D01B0915E01809353014A
:1012900090935401A0935501B093560182E080933E
:1012A00004021092080280E090E0892B09F4FBCB45
:1012B0000E94F600882309F4F3CB0E940000F0CBD3
:1012C00001E00E94330F71CFD701C601880F991F2B
:1012D000AA1FBB1F6C017D016894C0F84E5F5F4F71
:1012E0002C5F3F4F4B33510509F0F6CE9F012A5832
:1012F0003F4FD9012D913C912A50310929303105B8
:1013000008F006CF2CE130E03093600120935F01BC
:10131000C0925B01D0925C01E0925D01F0925E01AF
:101320008AE090E003CCCC0CDD1CEE1CFF1CD6CF79
:1013300082819381895791098335910560F5809168
:101340000802813240F184819581CA97899718F506
:101350009F012A5F3F4FC12CD12C760143E050E022
:10136000D9016D917C9111976A50710969307105AD
:1013700090F412966D917C911397665171096131C9
:10138000710580F112966D917C91665071096730FC
:10139000710508F454C0828193818C549109C597DA
:1013A00008F081C080910802843009F04DC084812A
:1013B00095818097479708F047C086819781099764
:1013C000099708F041C01092600110925F014092AD
:1013D0005B0150925C0160925D0170925E0187E05A
:1013E00090E0A4CBD701C601880F991FAA1FBB1F8D
:1013F0006C017D016894C0F84E5F5F4F2C5F3F4FDA
:101400004332510509F0ACCF9F012A5B3F4FD90110
:101410002D913C912A5031092930310508F0BBCF7C
:1014200020E130E03093600120935F01C0925B01C6
:10143000D0925C01E0925D01F0925E018FCECC0C07
:10144000DD1CEE1CFF1CD8CF80910802843458F1BB
:101450008481958189549109C39728F59F012A5F5A
:101460003F4FBF016A577F4FC12CD12C7601D90164
:101470004D915C911197495051094930510598F4AB
:1014800012964D915C911397465151094131510586
:1014900008F4A2C012964D915C9146505109473014
:1014A000510508F4B6C0809108028634C0F18281EB
:1014B00093810C970B9798F58481958109970997EB
:1014C00070F5868197818C974F9748F58085918537
:1014D00089974D9720F59F01265F3F4FC12CD12C56
:1014E000760145E050E0D9016D917C9111976C50E7
:1014F00071096B30710598F412966D917C91139778
:101500006E5171096731710508F488C012966D91AA
:101510007C91695071096930710508F4ACC0809103
:101520000802883508F4B6C08281938185589109F4
:101530008B35910508F0AEC0848195818254910964
:101540008E9708F0A7C08F01045C1F4F8DE190E0DB
:1015500030E020E0409108024450550B8417950775
:1015600014F5A80142505109DA014D915C9149509E
:1015700051094830510508F08DC0BC016F5F7F4FA5
:10158000D8014D915C911197475051094730510551
:1015900008F476C04D915C91485151094231510592
:1015A00008F475C0CB0101979595879590936001DC
:1015B00080935F018A970CF46DC0C901330FAA0BA9
:1015C000BB0B80935B0190935C01A0935D01B09392
:1015D0005E0189E090E0AACAD701C601880F991F71
:1015E000AA1FBB1F6C017D016894C0F82C5F3F4FA0
:1015F0006217730709F03BCF3092600120925F01C0
:10160000C0925B01D0925C01E0925D01F0925E01BC
:10161000E6CECC0CDD1CEE1CFF1CE8CFD701C601CA
:10162000880F991FAA1FBB1F6C017D016894C0F829
:101630004E5F5F4F2C5F3F4F4534510509F053CF4C
:101640009F0126573F4FD9012D913C912C503109D4
:101650002B30310508F063CF3092600120925F019A
:10166000C0925B01D0925C01E0925D01F0925E015C
:1016700088E090E05BCACC0CDD1CEE1CFF1CD8CFD0
:10168000220F331F216002960C5F1F4F63CF220F82
:10169000331FF9CF80910802803279F582819381DE
:1016A0000697069750F5848195810997099728F543
:1016B0009F012A5F3F4FBF01625C7F4FC12CD12C3D
:1016C0007601D9014D915C911197465051094630F0
:1016D000510598F412964D915C9113974951510917
:1016E0004331510508F489C012964D915C914950DF
:1016F00051094930510508F4A1C0809163019091CE
:10170000640198878F8306970CF4C8CDDF01129689
:10171000BE83AD8385ECC82E8DE9D82E8CE1E82EF2
:1017200081E8F82E03E010E0ED81FE81648175818F
:10173000A080B18090E080E00E94F90D69877A87EF
:101740008B879C87B50190E080E00E94F90D4B01EA
:101750005C012DEC3CEC4CE45FE30E94AB0E9B0182
:10176000AC0169857A858B859C850E944C0DF0E0E3
:10177000E0E087FD16C02DEC3CEC4CE45FE36985AE
:101780007A858B859C850E94AB0E9B01AC01C501BF
:10179000B4010E944C0DE2E0F0E087FD02C0E1E000
:1017A000F0E0A701960163E971E080E091E00E941A
:1017B000180F6F01FF0FEE08FF08C626D726E82690
:1017C000F9260F5F1F4F8D819E8102969E838D8328
:1017D000AF81B885A017B10709F0A6CFC0925B0111
:1017E000D0925C01E0925D01F0925E013092600166
:1017F00020925F01EFEFFFEFCFCCD701C601880F3A
:10180000991FAA1FBB1F6C017D016894C0F82C5F53
:101810003F4F6217730709F054CFEEE0F0E0F0930A
:101820006001E0935F01C0925B01D0925C01E092A5
:101830005D01F0925E018FE090E078C9CC0CDD1C78
:10184000EE1CFF1CE4CF873EE8E19E07EFEFAE07FA
:10185000B10509F4A2C08D3D9242AF4FB10509F028
:101860000DCD80E291E081C0853B2AE492072FEF05
:10187000A207B10509F49DC088F4873CF8E39F07EF
:10188000FFEFAF07B10509F491C08D3B9244AF4F14
:10189000B10509F0F3CC83E491E067C08D3AE2E54D
:1018A0009E07EFEFAE07B10509F486C0853A9A4569
:1018B000AF4FB10509F0E2CC81E491E056C08D351F
:1018C00022EA92072FEFA207B10509F44CC018F5E0
:1018D0008538FAE79F07FFEFAF07B10509F460C04D
:1018E00048F487399846AF4FB10509F0C7CC8BE271
:1018F00091E03BC08F36F0E99F07FFEFAF07B105DE
:1019000009F445C087369849AF4FB10509F0B6CC08
:101910008DE291E02AC08D33E2EC9E07EFEFAE0737
:10192000B10561F180F4873528EA92072FEFA2070D
:10193000B10551F18F34904BAF4FB10509F09ECCFA
:1019400082E391E012C08F31F0EE9F07FFEFAF0707
:10195000B105B9F08D31924EAF4FB10509F08ECC83
:101960008CE191E002C085E191E00E94A70286CC63
:1019700089E191E0FACF84E291E0F7CF85E291E04E
:10198000F4CF87E191E0F1CF80E391E0EECF88E200
:1019900091E0EBCF87E391E0E8CF89E391E0E5CFF9
:1019A0008BE391E0E2CF8DE391E0DFCF8FE391E035
:1019B000DCCF85E491E0D9CF87E491E0D6CF5058D1
:1019C000BB27AA270E94F70C0C94710E0E94630E8D
:1019D00038F00E946A0E20F039F49F3F19F426F483
:1019E0000C94600E0EF4E095E7FB0C945A0EE92F70
:1019F0000E94820E58F3BA1762077307840795078F
:101A000020F079F4A6F50C94A40E0EF4E0950B2EBC
:101A1000BA2FA02D0B01B90190010C01CA01A00140
:101A20001124FF27591B99F0593F50F4503E68F19B
:101A30001A16F040A22F232F342F4427585FF3CFDC
:101A4000469537952795A795F0405395C9F77EF4AD
:101A50001F16BA0B620B730B840BBAF09150A1F0F6
:101A6000FF0FBB1F661F771F881FC2F70EC0BA0F7C
:101A7000621F731F841F48F4879577956795B79504
:101A8000F7959E3F08F0B0CF9395880F08F09927FF
:101A9000EE0F9795879508950E94360E08F481E021
:101AA00008950E94650D0C94710E0E946A0E58F004
:101AB0000E94630E40F029F45F3F29F00C945A0E07
:101AC00051110C94A50E0C94600E0E94820E68F3C6
:101AD0009923B1F3552391F3951B550BBB27AA27E7
:101AE00062177307840738F09F5F5F4F220F331F21
:101AF000441FAA1FA9F335D00E2E3AF0E0E832D0E9
:101B000091505040E695001CCAF72BD0FE2F29D0EB
:101B1000660F771F881FBB1F261737074807AB07BD
:101B2000B0E809F0BB0B802DBF01FF2793585F4F32
:101B30003AF09E3F510578F00C945A0E0C94A50E85
:101B40005F3FE4F3983ED4F3869577956795B79514
:101B5000F7959F5FC9F7880F911D9695879597F91F
:101B60000895E1E0660F771F881FBB1F6217730798
:101B70008407BA0720F0621B730B840BBA0BEE1FAD
:101B800088F7E09508950E94CA0D6894B1110C94ED
:101B9000A50E08950E948A0E88F09F5798F0B92FDD
:101BA0009927B751B0F0E1F0660F771F881F991F92
:101BB0001AF0BA95C9F714C0B13091F00E94A40E82
:101BC000B1E008950C94A40E672F782F8827B85F92
:101BD00039F0B93FCCF3869577956795B395D9F7EA
:101BE0003EF490958095709561957F4F8F4F9F4FF4
:101BF0000895E89409C097FB3EF490958095709500
:101C000061957F4F8F4F9F4F9923A9F0F92F96E948
:101C1000BB279395F695879577956795B795F111BD
:101C2000F8CFFAF4BB0F11F460FF1BC06F5F7F4F5A
:101C30008F4F9F4F16C0882311F096E911C077236C
:101C400021F09EE8872F762F05C0662371F096E875
:101C5000862F70E060E02AF09A95660F771F881F44
:101C6000DAF7880F9695879597F90895990F0008E8
:101C7000550FAA0BE0E8FEEF16161706E807F9075E
:101C8000C0F012161306E407F50798F0621B730BF9
:101C9000840B950B39F40A2661F0232B242B252B7A
:101CA00021F408950A2609F4A140A6958FEF811D1D
:101CB000811D089597F99F6780E870E060E00895BE
:101CC0009FEF80EC089500240A9416161706180654
:101CD0000906089500240A94121613061406050630
:101CE0000895092E0394000C11F4882352F0BB0FC1
:101CF00040F4BF2B11F460FF04C06F5F7F4F8F4F24
:101D00009F4F089557FD9058440F551F59F05F3F5E
:101D100071F04795880F97FB991F61F09F3F79F00D
:101D200087950895121613061406551FF2CF46958F
:101D3000F1DF08C0161617061806991FF1CF869511
:101D40007105610508940895E894BB2766277727F5
:101D5000CB0197F908950E94BE0E0C94710E0E945B
:101D6000630E38F00E946A0E20F0952311F00C9457
:101D70005A0E0C94600E11240C94A50E0E94820E33
:101D800070F3959FC1F3950F50E0551F629FF001CE
:101D9000729FBB27F00DB11D639FAA27F00DB11DE7
:101DA000AA1F649F6627B00DA11D661F829F222770
:101DB000B00DA11D621F739FB00DA11D621F839FF7
:101DC000A00D611D221F749F3327A00D611D231FCD
:101DD000849F600D211D822F762F6A2F11249F571B
:101DE00050409AF0F1F088234AF0EE0FFF1FBB1F1E
:101DF000661F771F881F91505040A9F79E3F5105DD
:101E000080F00C945A0E0C94A50E5F3FE4F3983EBC
:101E1000D4F3869577956795B795F795E7959F5F86
:101E2000C1F7FE2B880F911D9695879597F9089518
:101E3000DB018F939F930E94280FBF91AF91A29FC8
:101E4000800D911DA39F900DB29F900D11240895B8
:101E50000E946F0FA59F900DB49F900DA49F800DC1
:101E6000911D11240895002E083090F0982F872F8F
:101E7000762F652F542F432F322F22270850F4CF6F
:101E8000220F331F441F551F661F771F881F991F7E
:101E90000A95B2F7002D089597FD1094002E083092
:101EA00098F00850232F342F452F562F672F782F67
:101EB000892F912DF4CF15949795879577956795F0
:101EC00057954795379527950A95AAF71124002D20
:101ED0000895EE0FFF1F0590F491E02D0994A29F45
:101EE000B001B39FC001A39F700D811D1124911DEE
:101EF000B29F700D811D1124911D0895F894FFCF9C
:101F0000000000002C018C00B9007901EA00C80033
:101F1000DC000D0A0043482D0043480043482B00D5
:101F20007C3C3C003E3E7C0045510030003130306E
:101F30002B003230302B00310032003300340035BA
:0A1F400000360037003800390000B9
:107E0000112484B714BE81FFF0D085E080938100F7
:107E100082E08093C00088E18093C10086E0809377
:107E2000C20080E18093C4008EE0C9D0259A86E02C
:107E300020E33CEF91E0309385002093840096BBD3
:107E4000B09BFECF1D9AA8958150A9F7CC24DD24C4
:107E500088248394B5E0AB2EA1E19A2EF3E0BF2EE7
:107E6000A2D0813461F49FD0082FAFD0023811F036
:107E7000013811F484E001C083E08DD089C08234E0
:107E800011F484E103C0853419F485E0A6D080C0E4
:107E9000853579F488D0E82EFF2485D0082F10E0AE
:107EA000102F00270E291F29000F111F8ED06801E7
:107EB0006FC0863521F484E090D080E0DECF843638
:107EC00009F040C070D06FD0082F6DD080E0C81688
:107ED00080E7D80618F4F601B7BEE895C0E0D1E017
:107EE00062D089930C17E1F7F0E0CF16F0E7DF06D8
:107EF00018F0F601B7BEE89568D007B600FCFDCFD4
:107F0000A601A0E0B1E02C9130E011968C91119780
:107F100090E0982F8827822B932B1296FA010C0160
:107F200087BEE89511244E5F5F4FF1E0A038BF0790
:107F300051F7F601A7BEE89507B600FCFDCF97BE46
:107F4000E89526C08437B1F42ED02DD0F82E2BD052
:107F50003CD0F601EF2C8F010F5F1F4F84911BD097
:107F6000EA94F801C1F70894C11CD11CFA94CF0C13
:107F7000D11C0EC0853739F428D08EE10CD085E9AC
:107F80000AD08FE07ACF813511F488E018D01DD067
:107F900080E101D065CF982F8091C00085FFFCCF94
:107FA0009093C60008958091C00087FFFCCF809118
:107FB000C00084FD01C0A8958091C6000895E0E648
:107FC000F0E098E1908380830895EDDF803219F02E
:107FD00088E0F5DFFFCF84E1DECF1F93182FE3DFCA
:107FE0001150E9F7F2DF1F91089580E0E8DFEE27F6
:047FF000FF270994CA
:027FFE00040479
:0400000300007E007B
:00000001FF
